:40000000004000201100000009B2000009B2000080B500AF0BF02EF980B500AF264B12221A6030200EF00AFC244B254A1A60254BEF2212021A60244B244A1A60244BC0226D
:4000400092001A60204B234A1A60234BBC2292011A601D4B214A1A60214BE82252011A60194B204A1A60204B822212061A601F4B8022D2021A601E4B43221A601D4B4022E4
:400080001A601D4B40221A601C4B40221A601C4B42221A601B4B41221A601B4B190007200EF0FCFC07200EF0BBFD184B00221A60C046BD4680BDC0463000104004010B4023
:4000C000060000800C0301400000014043FF00800003014040FF00800803014042FF00800403014041FF008008010B4000010B404C01014044010140300101402C0101407B
:400100002801014008010140510A01000C020B4080B582B000AF72B6654B01221A70FB1D00221A7022E0FB1D1A7813005B009B185B00604A9B183B603B681A7859780902C6
:400140000A43997809040A43DB781B06134318003B681A795B791B0213439BB219000AF08BFFFB1D1A78FB1D01321A70FB1D1B78012BD8D9504A514B110018000AF0ACFF73
:400180004F4B802252001A804E4B01221A704E4BC02292041A604D4BC02292031A604C4BC02292041A604B4BEE2212021A604A4BEE221A60494B70221A60494B80221204F5
:4001C0001A60484B992212041A60474B802212061A60464B8A22D2051A60454B454A1A60454B882292051A60444BC02212051A60434B992212041A60424B8A22D2051A600A
:40020000414B992212041A60404B01221A60404B19221A603F4B01221A603F4A3E4B1B78DBB23C218B43DBB214210B43DBB213703A4A3A4B1B78DBB216210B43DBB213701D
:40024000374BC0221A60374BB022D2031A60364B20221A60354BE222D2021A60344B802252011A60334B40221A60334BC02252031A60324BD82212011A60314B03221A6058
:40028000304B24221A60304B07221A602F4B07221A602F4B20221A602E4BC02292021A60FFF7BAFE0AF05AFFC046BD4602B080BD1C700F405434010084340100603401007E
:4002C00000600F4002600F400000024000010240000202400003024000040240000502400006024000500F4004500F4008500F4010500F400400990014500F4018500F401C
:4003000020500F4028500F4030500F40200010400820014000800F4001700F4000700F40000004400800044000010440080104400C010440000204400802044008030440EB
:4003400000040440080404400005044018050440000604400806044010B5064C2378002B07D1054B002B02D0044800E000BF0123237010BD7801002000000000182F01004D
:40038000084B10B5002B03D00749084800E000BF07480368002B00D110BD064B002BFBD09847F9E7000000007C010020182F0100C800002000000000164B002B00D1144BD6
:4003C0009D46402292029A1A924600218B460F461348144A121A12F096FD0F4B002B00D098470E4B002B00D098470020002104000D000D48002802D00C4800E000BF12F0DA
:4004000053FD2000290000F013F812F037FDC046000008000000000000000000000000007801002050290020000000000000000080B588B006AF01F0BFF908F0A5FD08F055
:4004400045FD00F06BFA02F0E7F90D4A0D48032304930023039380235B0002930A4B0193022300930223002106F094FDFA1D074B1900022006F0F6FF02F0C2FAFEE7C046C8
:40048000940500209104000098010020242F010090B585B000AF78600E23FB1800221A7000F06AFA00F074FB02F0D4FA01F056FA00F07CF800F054F800F082FA0D23FC18EC
:4004C00000F04EFB030023700D23FB181B78002B0FD10F23FB181B78002B0AD01E4B1B78012B03D11C4B00221A7002E01A4B01221A700F23FB180D22BA1812781A70164BB1
:400500001B78012B0BD10E23FB181B78002B11D10E23FB1801221A7000F046FA0AE00E23FB181B78012B05D10E23FB1800221A7000F046FA0E23FB181B78012B04D1074B0E
:400540001B68180000F04EFA642300220021002007F03EFBB2E7C04694010020FC09002080B588B006AF0D4A0D48032304930023039380235B0002930A4B0193032300939C
:400580000323002106F006FDFA1D074B1900032006F068FFC046BD4602B080BD94090020B905000098050020342F010080B500AFC046BD4680BDC04690B585B000AF786034
:4005C0002D4B2E4A190010000DF0B6FB0DF092FD0F23FC180DF076FA030023700F23FB181B78012B2FD100200DF034FA03001A000C23FB181A800C23FB181B886421180095
:4006000010F032FF03009BB2180011F065FC031CBB60B86812F044FA194A1A4B11F0C6FF03000C00180021000022174B11F092FC03000C001800210012F086FA021C134BF6
:400640001A600DF0E1F90C4B1B88322B03D9104B00221A8003E0084B1A880D4B1A800D4A0D490E4B180000F0DBFB322300220021002007F0ADFAABE79809002080013A408D
:40068000CDCCCCCCCCCCFC3F00004040F0090020F6090020F8090020FA090020F409002080B582B000AF7860C046BD4602B080BD80B582B000AF7860C046BD4602B080BD51
:4006C00080B500AFC046BD4680BDC04680B500AFC046BD4680BDC04680B582B000AF7860C046BD4602B080BD80B500AFC046BD4680BDC04680B582B000AF7860C046BD468D
:4007000002B080BD80B500AFC046BD4680BDC04680B586B000AFF8607A600A23FB180A1C1A800A23FB181B88180005F05DFF03007B617B69002B01D100230AE0FB687A69EF
:400740001A601323FA1879687B69180001F02EFE01231800BD4606B080BDC04680B584B000AF786039603B68FA2292005A43FA239900100010F078FE0300FB607B681B680E
:400780000B22BA18F968180006F018F80B23FB181B78002B01D0002300E001231800BD4604B080BD90B585B000AF78607B681B680F22BC18180006F003F9030023700F237A
:4007C000FB181B78002B01D0002300E001231800BD4605B090BDC04680B584B000AF78607B681B4A934201D9194B7B607B68194A934216D97A68FA239900100010F034FE03
:4008000003001A000D23FB181A707A68FA239900100010F0AFFE0B001A000E23FB181A8007E00E23FB187A681A800D23FB1800221A700E23FB1819880D23FB181A780B001B
:400840000021002007F0C4F9C046BD4604B080BD10270000E703000080B582B000AF78607B68180007F058F9C046BD4602B080BD80B582B000AF00F08FF803007B600A4B7F
:40088000094A1268802149040A431A60074B074A126801210A431A607B68180001F050F8C046BD4602B080BDFCED00E0001000E080B582B000AF044B1B687B607B6818000D
:4008C000BD4602B080BDC046041000E0B0B586B000AF786000F060F803003B6100237B617B681C0000231D00386979690A4A002310F054FF02000B002000290010F04EFFD5
:4009000003000C00BB60FC60BB68FC6818002100BD4606B0B0BDC04640420F0080B582B000AF114B1B687B607B68104A13407B607B683B603B6838330D4A1A603B683C330A
:400940000C4A1A600BF09EFD0BF0B8F90AF0D2FD0CF0DAFF0DF058F80DF056FA0DF0B0FAC046BD4602B080BD08ED00E0FFFFFFDFE3B300008522000080B582B000AF00F09A
:400980000BF803007B607B68180001F091FCC046BD4602B080BDC04680B500AF014B1800BD4680BD006CDC0280B500AF034B1B68180000F017F8C046BD4680BDD00000200B
:4009C00080B500AF00F07EF80200054B1A60FF231B06180000F006F8C046BD4680BDC046D000002080B584B000AF78607B681B0C1A120F23FB181A707B681A0C0E23FB181A
:400A00001A700F23FB181B781A001B02D31A0F22BA1812780E21791809784A439B18284A944663445A080C23FB181A800C23FB181B8818000BF050FF7B681A120E23FB1857
:400A40001A700F23FB181B781A001B02D31A0F22BA1812780E21791809784A439B18184A944663445A080C23FB181A800C23FB181B8818000BF04CFB0E23FB187A681A70D2
:400A80000F23FB181B781A001B02D31A0F22BA1812780E21791809784A439B18084A944663445A080C23FB181A800C23FB181B8818000AF049FFC046BD4604B080BDC046DC
:400AC00001FE000080B582B000AFFF231B067B600BF012FF0200BB1C1A80BB1C1B885B00FF21180010F0C0FC03001A007B1C1A707B1C1B781B041A007B6813437B600BF0CB
:400B000017FB0200BB1C1A80BB1C1B885B00FF21180010F0A9FC03001A007B1C1A707B1C1B781B021A007B6813437B600AF01CFF0200BB1C1A80BB1C1B885B00FF21180036
:400B400010F092FC03001A007B1C1A707B1C1B787A6813437B607B681800BD4602B080BD90B583B000AFFC1D0CF0D2FD03002370FB1D1B780122134001D1012200E00022C6
:400B8000BB1D1A70BB1D1B781800BD4603B090BD90B583B000AF0CF09DF8374B18000CF0FDFD3220FFF718FEFC1D00F067F803002370FB1D1B78012B59D1BB1D62221A70C2
:400BC000BB1D1A001B21002000F0C0F8BB1D04221A70BB1D1A001D21002000F0B7F8BB1D30221A70BB1D1A001E21002000F0AEF8BB1D3F221A70BB1D1A001F21002000F0E8
:400C0000A5F8BB1D02221A70BB1D1A002121002000F09CF8BB1D32221A70BB1D1A002921002000F093F8BB1D08221A70BB1D1A006A21002000F08AF8BB1D1A001B21012042
:400C400000F084F8BB1D1B78802252421343DAB2BB1D1A70BB1D1A001B21002000F076F8BB1D1A001A21012000F070F800E0C046BD4603B090BDC046D90F000090B583B082
:400C800000AFFC1DBB1D1A000C21012000F05EF803002370FB1D1B78012B03D1BB1D1B78552B01D000234CE0BB1D1A001B21012000F04CF8BB1D1B787F221340DAB2BB1D54
:400CC0001A70BB1D1A001B21002000F03FF8BB1D1A001D21012000F039F8BB1D1B7810221343DAB2BB1D1A70BB1D1A001D21002000F02CF8FC1DBB1D1A000C21012000F0F5
:400D000025F803002370FB1D1B78012B03D1BB1D1B78AA2B01D0002313E0FC1DBB1D1A000C21012000F012F803002370FB1D1B78012B03D1BB1D1B78552B01D0002300E0DB
:400D400001231800BD4603B090BDC04680B584B000AF3A60FB1D021C1A70BB1D0A1C1A7000210F200CF0D6F902000E23FB181A700E23FB181B78002B37D1BB1D1B781800BC
:400D80000CF032FB02000E23FB181A70FB1D1B78002B0DD13B681B7818000CF025FB02000E23FB181A700F23FB1801221A7020E0FB1D1B78012B13D101210F200CF032FA26
:400DC00002000E23FB181A7001200CF073FB0300DAB23B681A700F23FB1801221A7008E00F23FB1800221A7003E00F23FB1800221A700CF09BFA02000E23FB181A700E23AB
:400E0000FB181B78002B03D00F23FB1800221A700F23FB181B781800BD4604B080BDC04680B586B000AFF860B9607A601523FB181A0007210120FFF789FF1523FB181B78C4
:400E40001A021623FB181A801523FB181A0006210120FFF77BFF1523FB181B7819B21623FB181622BA1812880A431A801623FB1800229B5E002B11DA1623FB181622BA1800
:400E80000021525E12111A801623FB181B88514A13439AB21623FB181A8007E01623FB181622BA180021525E12111A80FB681622BA1812881A801523FB181A000921012076
:400EC000FFF744FF1523FB181B781A021623FB181A801523FB181A0008210120FFF736FF1523FB181B7819B21623FB181622BA1812880A431A801623FB1800229B5E002BED
:400F000011DA1623FB181622BA180021525E12111A801623FB181B882E4A13439AB21623FB181A8007E01623FB181622BA180021525E12111A80BB681622BA1812881A80C7
:400F40001523FB181A000B210120FFF7FFFE1523FB181B781A021623FB181A801523FB181A000A210120FFF7F1FE1523FB181B7819B21623FB181622BA1812880A431A80D6
:400F80001623FB1800229B5E002B11DA1623FB181622BA180021525E12111A801623FB181B880C4A13439AB21623FB181A8007E01623FB181622BA180021525E12111A8038
:400FC0007B681622BA1812881A80C046BD4606B080BDC04600F0FFFF80B582B000AFFB1D1A001A210120FFF7B1FE0BF041FEC046BD4602B080BDC04680B584B000AF78606F
:401000000A00FB1C1A707B68194A934214D97B68184A934210D87B685B01FA1C127892009B18FB60FB688822920594466344BB60BB6800221A6017E07B680F4A934213D989
:401040007B680E4A93420FD87B685B01FA1C127892009B18FB60FB688422D20594466344BB60BB6800221A60C046BD4604B080BDFFFFFF1FFFFF0F20FFFFFF3FFFFF0F40F3
:4010800080B584B000AF78600A00FB1C1A707B68194A934214D97B68184A934210D87B685B01FA1C127892009B18FB60FB688822920594466344BB60BB6801221A6017E015
:4010C0007B680F4A934213D97B680E4A93420FD87B685B01FA1C127892009B18FB60FB688422D20594466344BB60BB6801221A60C046BD4604B080BDFFFFFF1FFFFF0F20FE
:40110000FFFFFF3FFFFF0F4080B584B000AF0200FB1D1A700023FB60FB1D1B780F2B17D89A00334BD3181B689F460AF02BF90300FB6000F06BFC2F4B2E4A126801218A437F
:401140001A6000F083FCFB6818000AF01FF94BE0294B1B680133DBB21F221340DBB25B01DAB20B23FB1810321A70FA1D0B23FB1812781B789A4236D2FB1D1B78103B002B86
:4011800000DA1F335B111A000A23FB181A70FB1D1B78103B194A134004D5013B20225242134301331A000923FB181A700AF0EAF80300FB6000F02AFC0A23FB181B78104A32
:4011C000944663449B000922BA181278012191400A001A6000F03AFCFB6818000AF0D6F801E0C04600E0C046C046BD4604B080BD482F010010E000E004E000E01F000080FA
:401200006038003880B584B000AF0200FB1D1A700023FB60FB1D1B780F2B17D89A00334BD3181B689F460AF0ADF80300FB6000F0EDFB2F4B2E4A126801210A431A6000F04B
:4012400005FCFB6818000AF0A1F84BE0294B1B680133DBB21F221340DBB25B01DAB20B23FB1810321A70FA1D0B23FB1812781B789A4236D2FB1D1B78103B002B00DA1F33C0
:401280005B111A000A23FB181A70FB1D1B78103B194A134004D5013B20225242134301331A000923FB181A700AF06CF80300FB6000F0ACFB0A23FB181B78104A94466344D9
:4012C0009B000922BA181278012191400A001A6000F0BCFBFB6818000AF058F801E0C04600E0C046C046BD4604B080BD882F010010E000E004E000E01F0000804038003887
:4013000080B584B000AF0200FB1D1A700023FB60FB1D1B780F2B04D89A002A4BD3181B689F46294B1B680133DBB21F221340DBB25B01DAB20B23FB1810321A70FA1D0B233D
:40134000FB1812781B789A4236D2FB1D1B78103B002B00DA1F335B111A000A23FB181A70FB1D1B78103B194A134004D5013B20225242134301331A000923FB181A700AF0BE
:4013800001F80300FB6000F041FB0A23FB181B780F4A944663449B000922BA181278012191400A001A6000F051FBFB68180009F0EDFF01E0C04600E0C046C046BD4604B03E
:4013C00080BDC046C82F010004E000E01F000080A038003880B586B000AF0200FB1D1A70BB1D0A1C1A7000237B61FB1D1B780F2B5ED89A00644BD3181B689F4609F0C2FF89
:4014000003007B6100F002FB604B1B683B613B691B021B0A3B61BB1D1B781B061A003B6913433B61594B3A691A6000F00FFB7B69180009F0ABFFA2E009F0A4FF03007B6101
:4014400000F0E4FA524B1B683B613B69514A13403B61BB1D1B781B041A003B6913433B614B4B3A691A6000F0F1FA7B69180009F08DFF84E009F086FF03007B6100F0C6FAFA
:40148000434B1B683B613B691B021B0A3B61BB1D1B781B061A003B6913433B613C4B3A691A6000F0D3FA7B69180009F06FFF66E0394B1B680133DBB21F221340DBB25B0172
:4014C000DAB20F23FB1810321A70FA1D0F23FB1812781B789A4251D2FB1D1B78103B002B00DA03339B101A000E23FB181A70FB1D1B78103B294A134004D5013B0422524288
:40150000134301331A000D23FB181A7009F03AFF03007B6100F07AFA0E23FB181B78204A944663449B001B683B610D23FB181B78DB00FF229A401300DA433B6913403B61DA
:40154000BB1D1A780D23FB181B78DB009A4013001A003B6913433B610E23FB181B78104A944663449B003A691A6000F06FFA7B69180009F00BFF01E0C04600E0C046C0461E
:40158000BD4606B080BDC046083001001CED00E020ED00E0FFFF00FF04E000E0030000800039003880B586B000AF0200FB1D1A7000233B61FB1D1B780F2B5DD89A005D4B92
:4015C000D3181B689F461623FB185B4A1A80A9E01623FB18032252421A80A3E01623FB18022252421A809DE01623FB18012252421A8097E009F0C6FE03003B6100F006FAE7
:401600004E4B1B68FB60FB681A0E1623FB181A8000F01CFA3B69180009F0B8FE82E009F0B1FE03003B6100F0F1F9454B1B68FB60FB681B0C1AB21623FB18FF210A401A80BA
:4016400000F004FA3B69180009F0A0FE6AE009F099FE03003B6100F0D9F9394B1B68FB60FB681A0E1623FB181A8000F0EFF93B69180009F08BFE55E0324B1B680133DBB20F
:401680001F221340DBB25B01DAB20B23FB1810321A70FA1D0B23FB1812781B789A423CD2FB1D1B78103B002B00DA03339B101A000A23FB181A70FB1D1B78103B224A134040
:4016C00004D5013B04225242134301331A000923FB181A7009F056FE03003B6100F096F90A23FB181B78194A944663449B001B68FB6000F0ABF93B69180009F047FE092359
:40170000FB181B78DB00FA68DA4013001AB21623FB18FF210A401A8003E01623FB18064A1A80C0461623FB1800229B5E1800BD4606B080BD483001000080FFFF1CED00E009
:4017400020ED00E004E000E0030000800039003880B586B000AF78600F23FB1820221A7000237B6100233B611AE001223B699A4013001A007B681340BB60BB68002B0CD0C0
:401780000F23FB181A783B69D31A013B01229A4013001A007B6913437B613B6901333B610F23FB181A783B699A42DED87B691800BD4606B080BDC04680B500AF00F0B4FB49
:4017C00000F0BEFB00F0A8FBC046BD4680BDC04680B500AFFEE7C04680B582B000AF00237B6009F0CFFD03007B6000F00FF9074B1021180007F0F2FB00F028F97B68180058
:4018000009F0C4FDC046BD4602B080BD200A002080B584B000AF786039600023FB603B68002B01D1FFF7D4FF7B68002B03D13B680A221A8014E009F0A5FD0300FB6000F014
:40184000E5F809497B681022180008F0CFFB00F0FDF8FB68180009F099FD3B6800221A80BD4604B080BDC046200A002080B584B000AF786039600023FB603B68002B01D111
:40188000FFF7A6FF7B68002B03D13B680A221A8023E07B681021180008F074FB0300BB60BB680F2B15D809F06DFD0300FB6000F0ADF879680A4B1022180008F097FB00F0F4
:4018C000C5F8FB68180009F061FD3B6800221A8003E03B68FA2292001A80BD4604B080BD200A002080B582B000AFFEF7E1FF03007B607B681800BD4602B080BD80B500AF54
:40190000C046BD4680BDC04680B584B000AF78607B68002B01D1FFF75BFF084B1B68FB60FB68002B01D0002201E0FA23DA007B681A80FB681800BD4604B080BD040A002097
:4019400080B582B000AF7860034B7A681A60C046BD4602B080BDC046040A002080B582B000AF00237B6000F015F803003B6009F009FD03007B60064B00221A607B6818002F
:4019800009F004FD3B681800BD4602B080BDC046140A002080B584B000AF0023FB6009F0F1FC0300FB60094B1B68BB60FB68180009F0ECFCBB68180000F01EFB03007B60F2
:4019C0007B681800BD4604B080BDC046140A002080B584B000AF0023FB6009F0D3FC0300FB60094B1B68BB60FB68180009F0CEFCBB68180000F000FB03007B607B681800C9
:401A0000BD4604B080BDC046000A002080B500AF0B4B1B8801339AB2094B1A80094B1B88002B04D1FEF744FF0200074B1A60054B1B8801339AB2034B1A80C046BD4680BD99
:401A4000180A00200C0A0020080A002080B582B000AF144B1B88013B9AB2124B1A80114B1B88002B1AD1FEF723FF02000E4B1A600D4B1A680D4B1B68D31A7B600C4B1A68CE
:401A80007B689A4202D20A4B7A681A60094B1A687B689A4202D2074B7A681A60C046BD4602B080BD0C0A0020100A0020080A0020140A0020000A002080B584B000AF7860D9
:401AC0007B68180000F044F80300FB60FB681800BD4604B080BDC04680B584B000AF0200FB1D1A70FB1D1B78FB60054AFB68D3181B78BB60BB681800BD4604B080BDC046AA
:401B00008830010080B584B000AF0200BB1D1A80BB1D1B88FF2B0AD9BB1D1B881B0A9BB2BB600A4ABB68D3181B78FB6008E0BB1D1B88BB60054ABB68D3181B780833FB607C
:401B4000FB681800BD4604B080BDC0468830010080B584B000AF78607B681A4A934216D97B68194A934208D97B681B0EBB60174ABB68D3181B78FB601EE07B681B0CBB6099
:401B8000124ABB68D3181B780833FB6014E07B68FF2B09D97B681B0ABB600C4ABB68D3181B781033FB6007E07B68BB60074ABB68D3181B781833FB60FB681800BD4604B048
:401BC00080BDC046FFFF0000FFFFFF0088300100B0B590B000AF386379637B6B002B03D17B6B002B4AD142E07B6B504A934203D87B6BFF2B2DD81EE07B6B4D4A93420DD876
:401C00007B6B1B0C3B6100237B613B69BB63494ABB6BD3181B780833FB6382E07B6B1B0EBB610023FB61BB69BB63424ABB6BD3181B78FB6375E07B6B1B003B6000237B609F
:401C40003B68BB633B4ABB6BD3181B781833FB6367E07B6B1B0ABB600023FB60BB68BB63344ABB6BD3181B781033FB6359E07B6B002B35D13B6B2D4A934231D97B6B002B85
:401C800006D17B6B002B17D13B6B294A934213D97B6B1B023A6B120EBA62BA6A1A43BA627B6B1B0EFB62BB6ABB63224ABB6BD3181B782033FB6334E07B6B1B043A6B120CAD
:401CC0003A623A6A1A433A627B6B1B0C7B623B6ABB63184ABB6BD3181B782833FB6320E07B6B002B05D17B6B002B12D13B6BFF2B0FD97B6B1B063A6B140A1C437B6B1D0A76
:401D00002300BB630B4ABB6BD3181B783033FB6307E03B6BBB63074ABB6BD3181B783833FB63FB6B1800BD4610B0B0BDFFFF0000FFFFFF008830010080B586B000AF7860EB
:401D40007B68002B01D120230FE07B685B427A6813407B617B691800FFF7AEFE03003B613B691F22D31AFB60FB681800BD4606B080BDC04680B586B000AF0200FB1D1A7021
:401D8000FB1D1B78002B01D1082316E0FB1D1B785B42DAB21723FB18F91D09780A401A701723FB181B781800FFF796FE03003B613B690722D31AFB60FB681800BD4606B064
:401DC00080BDC04680B586B000AF0200BB1D1A80BB1D1B88002B01D1102316E0BB1D1B885B429AB21623FB18B91D09880A401A801623FB181B881800FFF784FE03003B6158
:401E00003B690F22D31AFB60FB681800BD4606B080BDC04680B586B000AF78607B68002B01D120230FE07B685B427A6813407B617B691800FFF78CFE03003B613B691F2279
:401E4000D31AFB60FB681800BD4606B080BDC04690B587B000AF386079603B687A68134301D1402318E03B687C6800225942A2413B68080003403B617B6813407B613B6998
:401E80007C6918002100FFF7A3FE0300FB60FB683F22D31ABB60BB681800BD4607B090BD80B586B000AF78607B685B08174A13407B617A687B69D31A3B613B69144A134095
:401EC000FB603B699B08124A13407B61FA687B69D3183B613B690F4A1340FB603B691B090C4A13407B61FA687B69D3183B613A6913001B029B181A049B181B0E3B613B6963
:401F0000DBB21800BD4606B080BDC04655555555333333330F0F0F0F80B500AFFFF75CFCC046BD4680BDC04680B500AF034B00221A60FEF79DFCC046BD4680BD040A002056
:401F400080B584B000AF00237B60244B00221A80234B00221A80234B00221A60224B00221A60224B00221A60214B00221A60214B00221A600023FB6009F004FA03007B6077
:401F80000A23FB1800221A8012E0184B00221A60FFF73CFDFFF75AFD144B1B68FA68D318FB600A23FB181A880A23FB1801321A800A23FB181B88002BE7D00E4BFA681A6045
:401FC0000A4B00221A600A4B00221A607B68180009F0DCF9C046BD4604B080BD180A00200C0A0020080A0020100A0020140A0020000A00201C0A002080B584B000AF7860BA
:402000007B68FB60084B1B68FA689A4205D9064B1B68FA68D31AFB6001E00023FB60FB681800BD4604B080BD1C0A002080B582B000AF114B3B6080237B6007E07B68013B4D
:402040007B603B681A1D3A6000221A607B68002BF4D10A4B0A4A1A60084B1B681A0007239A4313001A00054B1A60064B00221A80C046BD4602B080BD340A0020300A0020D4
:40208000340C00209A09002080B500AFC046BD4680BDC04680B582B000AF78607B681800FEF7FEFAC046BD4602B080BD80B582B000AF78607B681800FEF7FAFAC046BD4624
:4020C00002B080BD80B500AFFEF7FAFAC046BD4680BDC04680B582B000AF78607B681800FEF7FAFAC046BD4602B080BD80B500AFFEF7ECFAC046BD4680BDC04680B586B098
:4021000000AFF860B9607A601A00BB1C1A807B6804337B617B69072293437B617B69043B7B617B69802252041A607B69043B7B61FA687B691A607B69043B7B612E4A7B69F6
:402140001A607B69043B7B617B692C4A1A607B69043B7B617B692A4A1A607B69043B7B617B69284A1A607B69043B7B617B69264A1A607B69043B7B61BA687B691A607B6942
:40218000043B7B617B69032252421A607B69043B7B617B691D4A1A607B69043B7B617B691B4A1A607B69043B7B617B69194A1A607B69043B7B617B69174A1A607B69043BC6
:4021C0007B617B69154A1A607B69043B7B617B69134A1A607B69043B7B617B69114A1A607B69043B7B617B690F4A1A607B691800BD4606B080BDC046B57A000012121212AF
:40220000030303030202020201010101111111111010101009090909080808080707070706060606050505050404040480B500AFFEF75AFAC046BD4680BDC04680B582B086
:4022400000AF78607B681800FEF754FAC046BD4602B080BD80B500AFFEF754FA084B1B8801339AB2064B1A80054B1B88632B04D9034B00221A8006F095F8C046BD4680BDE8
:402280009A09002080B582B000AF09F087F803007B6000F0E1FA7B68180009F083F800F009FC00F0F1FAC046BD4602B080BDC04680B584B000AF78607A68FA23990010004F
:4022C0000FF0D2F80300FB600E4BFA68013A1A600D4B1B68BB60BB681B021B0ABB600A4BBA681A60094B094A126805210A431A60064B064A126802210A431A60C046BD46C4
:4023000004B080BD14E000E020ED00E010E000E090B587B000AFF860B9607A6000237B61FB68002B04D17B6804221A70002336E0BB68002B04D17B680C221A7000232EE088
:40234000194B1B78002B04D07B6811221A70002325E0FB681B78013B032B04D97B6801221A7000231BE0C04609F018F803007B61FB685A69BB681A60BB681B681322BC1854
:40238000180001F081F8030023707B69180009F009F87B6800221A701323FB181B781800BD4607B090BDC0466814002080B586B000AFF860B9607A6000237B61FB68002BF1
:4023C00003D17B6804221A7026E0BB68002B03D17B680C221A701FE0114B1B78002B03D07B6812221A7017E0FB681B78013B032B03D97B6801221A700EE0C04608F0CEFFAA
:4024000003007B61FB68BA685A617B69180008F0C9FF7B6800221A70BD4606B080BDC0466814002080B58AB000AFF860B9607A603B6000237B61FB68002B04D13B6B042268
:402440001A700023E2E1FB681B68002B04D13B6B04221A700023D9E1BB68002B04D13B6B04221A700023D1E17B68002B04D13B6B04221A700023C9E1BB6800221A60FB685D
:402480007B627B6A1B683B6217E03B6A1B78022B08D0032B08D0012B08D03B6B01221A700023B3E1C04602E0C04600E0C0467B6A04337B627B6A1B683B623B6A002BE4D19B
:4024C000BC4B1B78002B04D03B6B02221A7000239CE1B94B1B78002B04D03B6B0D221A70002393E11F23FB1800221A701C23FB1800221A801B23FB1800221A70FB687B6277
:402500007B6A1B683B6208F049FF03007B61A7E03B6A1B78022B54D0032B02D0012B29D08AE03B6A1B89002B1BD03B6A1B89013B9AB23B6A1A81BB681A1DBA603A6A1A60D6
:402540001F23FB1801221A707B681A1D7A6000221A601C23FB181A881C23FB1801321A8078E01B23FB181B22BA18127801210A431A706FE03B6A5B68002B19D07B681A1D96
:402580007A603A6A52681A603B6A00225A60BB681A1DBA603A6A1A601F23FB1801221A701C23FB181A881C23FB1801321A8051E01B23FB181B22BA18127802210A431A702C
:4025C00048E03B6A5B683B613B69DB8A002B2AD07B681A1D7A603A691269101D3969086112681A603B691A693B699B689A4203D13B695A683B691A613B69DB8A013B9AB2AF
:402600003B69DA82BB681A1DBA603A6A1A601F23FB1801221A701C23FB181A881C23FB1801321A8016E01B23FB181B22BA18127804210A431A700DE07B69180008F0B2FE86
:40264000BB6800221A603B6B01221A701C23FB181B88DBE07B6A04337B627B6A1B683B623B6A002B00D053E71F23FB181B78012B0DD1BB6800221A607B69180008F092FE8B
:402680003B6B00221A701C23FB181B88BEE04B4B1A684A4B1B683421595C1B23FB181B780B43DBB2802149420B43D9B23423D154424B1B68352200219954404B1B683A6896
:4026C0001A63FB68180000F099FB7B69180008F069FE00F06FFE08F061FE03007B61374B1B6835229B5C002B01D0022B20D1334B1B68DB693B623B6A002B0CD0BB681A1D1B
:40270000BA603A6A1A60BB6800221A601C23FB1801221A8014E0294B1B68352201219954264B1B68FA681100180000F013FC07E0224B1B68FA681100180000F00BFCC04665
:402740001E4B1B6835229B5C002B02D0022B28D036E03B6A1B78012B11DB022B07DD032B0DD17B681A1D7A6000221A6015E07B681A1D7A60114A1268526A1A600DE07B6925
:40278000180008F00FFEBB6800221A603B6B01221A701C23FB181B8838E03B6B00221A7017E07B681A1D7A6000221A603B6B0E221A700EE068140020700C00206C140020DE
:4027C0007B681A1D7A6000221A603B6B0A221A70C046104B1B683422002199540D4B1B683522002199540B4B1B680022DA61094B1B6800221A62074B1B6800225A627B6923
:40280000180008F0CFFD1C23FB181B881800BD460AB080BD6C14002080B500AFFFF706FC00F06EFC00F0A8FC00F02AFD00F008FC01F0B2FE02F030FC03F056FE00F0D0FC7E
:4028400000F0F6FC05F02EFEFFF71EFC06F00AF8C046BD4680BDC04680B500AF084B1B78012B09D1074B1B78FF2B05D0054B1B780133DAB2034B1A70C046BD4680BDC04686
:40288000790C00206814002080B582B000AF00237B601F4B1B78012B35D108F07FFD03007B601C4B1B78002B05D01A4B1B78013BDAB2184B1A70174B1B78002B1FD1164B2A
:4028C0001B78002B1BD100F0B9FD144B1B781A00134B9200D258134B1A60104B1A78124B1B789A420BD00F4B1B68DA6B0132DA630E4B1B685A1C0D4B1A6008F06EFD7B68FA
:40290000180008F04FFDC046BD4602B080BDC046790C002068140020700C0020820C0020F41F002050120020540F0020D811002080B582B000AF00237B600F4B1B78012B44
:4029400015D108F02BFD03007B600C4B1B78002B09D10B4B1B78FF2B05D0094B1B780133DAB2074B1A707B68180008F01BFDC046BD4602B080BDC046790C002068140020CF
:40298000700C002080B582B000AF00237B60194B1B78012B2AD108F001FD03007B60164B1B78002B1ED1154B1B78002B15D0134B1B78013BDAB2114B1A70104B1B78002BAC
:4029C00006D17B68180008F0EDFC00F0F3FC0DE07B68180008F0E6FC08E07B68180008F0E1FC03E07B68180008F0DCFCC046BD4602B080BD790C002068140020700C002048
:402A000080B500AF0D4B1B78002B13D100F016FD0B4B1A780B4B1A70094B1B781A000A4B9200D258094B1A60084B1A68084B1A6008F0BBFCC046BD4680BDC046790C0020CB
:402A4000820C0020540F0020F41F0020501200206C14002080B582B000AF00237B60022005F05AF808F09AFC03007B600E4B00221A607B68180008F095FC642005F04CF8B1
:402A800008F08CFC03007B60074B1A68074B1A60074B01221A707B68180008F083FCC046BD4602B080BDC0467C0C0020E0110020F01F002080B584B000AF00237B60FFF7B5
:402AC000C9FB08F06BFC03007B604A4B1B685A1C484B1A607B68180008F064FC464B1B78012B00D083E0454B1B78012B08D0022B0BD0002B11D10B23FB1801221A7014E046
:402B00000B23FB1800221A700FE00B23FB1801221A703A4B01221A7007E00B23FB1801221A70364B00221A70C0460B23FB181B78002B5BD0324B1B68FB6051E008F02EFCB9
:402B400003007B60FB681B6B002B42D0FB681B6B5A1EFB681A63FB681B6B002B39D1FB6834229B5C1A00372313400DD0FB6834229B5C37229343D9B2FB6834229954FB682B
:402B800035220121995403E0FB68352200219954FB6834229B5C1A000823134019D1FB683A229A5C174B1B781343DAB2154B1A70FB6838229B5C1800FB6838229B5C1A00C2
:402BC000114B9A5CFB6839215B5C1343DAB20E4B1A54FB685B69FB607B68180008F0E2FBFB6836229B5C3F2BA8D100E0C046BD4604B080BD74140020790C0020D40F002055
:402C0000580F0020581200205C12002080B500AF014B1800BD4680BD1B72000080B500AFC046BD4680BDC04680B586B000AFF860B9601900FB1D1A70BB1D0A1C1A70FB687F
:402C40009B7A19001723FB18394A525C1A701723FB181B78FA68D318DB7A19001623FB18334A525C1A701723FB181B78DB00D9B21523FB181622BA1812788A181A701523F9
:402C8000FB181A782B4B9200D3583B613B6900221A633B69BA685A623B6934229B5CFA1D1278D243D2B21340D9B23B69342299543B69BA1D352112785A543B6934229B5CF1
:402CC0001A000823134017D13B693A229A5C1A4B1B781343DAB2184B1A701723FB181B781722BA1812781549895C3A693920125C0A43D1B2114AD154FA683B6911001800F6
:402D000000F0EEF83B691B6A002B09D03B691A6A3B691100180000F01DF93B69FA68DA611523FB181B781800BD4606B080BDC0468C310100F41F0020581200205C12002059
:402D400080B584B000AF7860294B1B687A68DA61274B1B6838229B5C1800254B1B6838229B5C1A007B689B18DA7A214B1B6839215B5C1343DAB27B681B18DA727B689A7A6E
:402D80001B4B1B683A215B5C1343DAB27B689A72174B1A680F23FB183821525C1A700F23FB181A780F23FB181B781249C95C104B1B6839201B5CDB43DBB20B40D9B20D4BD7
:402DC00099540F23FB181B780A4AD35C002B0BD1074B1B683A229B5CDB43DBB2064A12781340DAB2044B1A70C046BD4604B080BD6C1400205C1200205812002080B586B002
:402E000000AF7860334B1B680022DA61314B1B687A681A627B687B617B691B683B6125E02C4B1B6838229B5C18002A4B1B6838229B5C1A003B699B18DA7A264B1B683921CA
:402E40005B5C1343DAB23B691B18DA723B699A7A204B1B683A215B5C1343DAB23B699A727B6904337B617B691B683B613B69002BD6D1184B1A680F23FB183821525C1A7021
:402E80000F23FB181A780F23FB181B781249C95C104B1B6839201B5CDB43DBB20B40D9B20D4B99540F23FB181B780B4AD35C002B0BD1084B1B683A229B5CDB43DBB2074AE7
:402EC00012781340DAB2054B1A70C046BD4606B080BDC0466C1400205C1200205812002080B584B000AF786039600F23FB187A683821525C1A700F23FB181B780F22BA18B9
:402F0000127839688A18D27A79683920095CC943C9B20A40D1B23A68D3180A1CDA720F23FB181B783A68D318DB7A002B0AD13B689B7A7A683A21525CD243D2B21340DAB2AB
:402F40003B689A727B680022DA61C046BD4604B080BDC04680B586B000AF786039600F23FB187A683821525C1A700E23FB187A683A21525C1A700D23FB187A683921525C39
:402F80001A703B687B617B691B683B612CE00F23FB181B780F22BA18127839698A18D27A0D2179180978C943C9B20A40D1B23A69D3180A1CDA720F23FB181B783A69D3180A
:402FC000DB7A002B0AD13B699B7A0E22BA181278D243D2B21340DAB23B699A727B6904337B617B691B683B613B69002BCFD1C046BD4606B080BDC04680B584B000AF7860AE
:403000007B6800229A720F23FB1800221A700DE00F23FB181B787A68D3180022DA720F23FB181A780F23FB1801321A700F23FB181B78072BECD9C046BD4604B080BDC046E6
:4030400080B584B000AFF0235A002A4B1100180000F078F90E23FB1800221A802AE00C23FB180E22BA18128801321A800E23FB181A8813005B009B18DB001E4A9B18BB60FF
:403080000C23FB181A8813005B009B18DB00194A9B187B60BB6800221A70BB687A685A60BB68154A5A610E23FB181A880E23FB1801321A800E23FB181B88122BCFD90E2380
:4030C000FB181A8813005B009B18DB00094A9B18BB60BB6800221A70BB6800225A60BB68054A5A61054B034A1A60C046BD4604B080BDC0467C1600208C32010064140020E3
:4031000080B500AF114B00221A60114B00221A70104B00221A70104B00221A700F4B00221A700F4B00221A600E4B00221A600E4B00221A600D4B00221A600D4B00221A70BF
:403140000C4B00221A70C046BD4680BD7414002068140020700C0020E9110020790C0020D81100207C0C0020F4200020E0110020F01F0020780C002080B582B000AF124B2B
:4031800000221A70FB1D00221A7009E0FB1D1B780E4A0021D154FB1D1A78FB1D01321A70FB1D1B78072BF1D9094B00221A70094B00221A70084B00221A60084B00221A6069
:4031C000C046BD4602B080BD581200205C120020540F0020820C0020501200206C14002080B588B006AF0D4A0D480323049300230393802302930B4B01930B4B00933F23BB
:40320000002103F0C7FEFA1D084B19003F2004F029F9C046BD4602B080BDC04678160020D13400007C140020FFFF00009032010080B588B006AF0D4A0D48032304930023ED
:403240000393802302930B4B01930B4B00933E23002103F09FFEFA1D084B19003E2004F001F9C046BD4602B080BDC046D411002001350000D80F0020FEFF0000A0320100BC
:4032800080B584B000AFF223DA00294B1100180000F058F880235A00264B1100180000F051F80F23FB1800221A7023E00E23FB180F22BA18127801321A700F23FB181B7800
:4032C00058225A431A4BD318BB600E23FB181B7858225A43164BD3187B60BB687A685A61BB68154A1A650F23FB181A780F23FB1801321A700F23FB181B78142BD6D90F23A5
:40330000FB181B7858225A43094BD318BB60BB6800225A61BB68084A1A65084B00221A60074B034A1A60C046BD4604B080BDC0465C180020F41F00208C320100580F00206D
:40334000E411002080B582B000AF78600A00BB1C1A8009E07B685A1C7A6000221A70BB1C1A88BB1C013A1A80BB1C1B88002BF1D1C046BD4602B080BD80B584B000AFF86013
:40338000B960BB1D1A800CE0FB685A1CFA60BA68511CB96012781A70BB1D1A88BB1D013A1A80BB1D1B88002BEED1C046BD4604B080BDC04680B582B000AF00237B6007F010
:4033C000EDFF03007B60164B1B78002B1FD1154B1B78002B1BD100F031F8134B1B781A00124B9200D258124B1A600F4B1A78114B1B789A420BD00E4B1B68DA6B0132DA63B3
:403400000D4B1B685A1C0C4B1A6007F0E2FF7B68180007F0C7FFC046BD4602B080BDC04668140020700C0020820C0020F41F002050120020540F0020D811002080B582B04E
:4034400000AF0D4B1B781900FB1D0C4A525C1A70FB1D1B78DB00DAB2FB1D1B780849CB5C1900064B5B5CD318DAB2064B1A70C046BD4602B080BDC046581200208C31010005
:403480005C120020820C002080B584B000AF78607B68002B01D1002315E00F23FB1800221A7009E07B6801337B600F23FB181A780F23FB1801321A707B681B78002BF1D1E0
:4034C0000F23FB181B781800BD4604B080BDC04680B584B000AF78600023FB6007F05EFF0300FB60054B1B685A1C044B1A60FB68180007F057FFFEF7E5FDEFE77C0C002093
:4035000080B584B000AF78600023FB6002E0C82004F002FB254B1B78002BF8D0244B1B68642118000DF0A0FF03001A00204B1A601F4B1B68002B05D11E4B00221A70FF201D
:4035400004F0F6F807F02AFF0300FB60184B1B6864225A43184B1A60FB68180007F022FF07F01CFF0300FB60134B1A68134B1A60114B00221A60FB68180007F013FF0F4B74
:403580001A680B4B1B68190010000DF06DFF0300DBB26422D31ADAB2064B1A70FEF7A6FD00F00EF8642004F0B7FAD9E7F01F0020E0110020E81100207C0C0020F420002008
:4035C00090B585B000AF0F23FB1800221A7030E00E23FC183A000F23FB181B781100180004F02EF8030023700E23FB181B78002B18D10F23FB181A78124B9200D358BB607A
:40360000BB68002B0ED0BB68012B0BD0BB689A68BB68DB689B00D218BB689A643B005A68BB68DA640F23FB181A780F23FB1801321A700F23FB181B783F2BC9D9C046BD46DF
:4036400005B090BDF41F002080B588B000AFB9607A6019000F23FB18021C1A700C23FB180A1C1A800023BB6107F098FE0300BB61794B1B687B617B69002B00D1E3E07B6969
:403680005A69754B1A60BB69180007F08BFE7B69BA681A607B690F22BA18362112785A547B693422002199547B693522002199547B6900221A637B69FA6A5A607B69BA6A3D
:4036C000DA607B697A689A607B693022BA1812881A827B690C22BA1812885A827B693B22002199540F23FB181B78DB08D9B27B69382299540F23FB181B7807221340D9B299
:403700007B69372299547B6938229B5C1A0001239340D9B27B693A2299547B6937229B5C1A0001239340D9B27B69392299547B690022DA617B6900221A627B6900229A62A0
:403740007B6900225A627B690022DA637B6900225A647B6900221A647B6900229A647B690022DA647B693D4A1A651F23FB1800221A7010E01F23FB181B787A6914339B002C
:40378000D318043300221A601F23FB181A781F23FB1801321A701F23FB181B78002BE9D07B691800FEF74AFD07F0F8FD0300BB610F23FB181A782A4B92007969D150BB693E
:4037C000180007F0EFFD7B691800FEF763FC07F0E5FD0300BB61234B1A687B695A617B6900229A611F4B1B68002B03D01D4B1B687A699A611B4B7A691A607B693A229A5C49
:40380000194B1B781343DAB2174B1A707B6938229B5C18007B6938229B5C1A00134B9A5C7B6939215B5C1343DAB2104B1A54104B1B780133DAB20E4B1A70BB69180007F06F
:40384000B1FD002304E0BB69180007F0ABFD42231800BD4608B080BDE41100208C320100F41F0020580F0020581200205C120020E911002080B588B000AFF86008001100F6
:403880007B600A23FB18021C1A800923FB180A1C1A700023BB61FB68002B04D17B686E221A700023EDE0FB681B78052B04D07B6801221A700023E4E01723FB180922BA18FC
:4038C00012787F218A431A701723FB181B78002B0CD00923FB180922BA1812787F210A401A701D23FB1801221A7003E01D23FB1800221A707B6800221A7007F04FFD03006F
:40390000BB610923FB181B78012B00D183E002DC002B56D0A6E0022B02D0032B2AD0A1E0FB681A891E23FB180A21791809880A401A801E23FA180A23FB1812881B889A42A5
:4039400010D11D23FB181B78012B0ED1FB681B891E22BA181288D24392B213409AB2FB681A8102E07B6870221A70BB69180007F019FD83E0FB681A891E23FB180A21791829
:4039800009880A401A801E23FB181B88002B10D01D23FB181B78012B0ED1FB681B891E22BA181288D24392B213409AB2FB681A8102E07B6870221A70BB69180007F0F2FCF4
:4039C0005CE0FB681B89DB439AB21E23FB180A21791809880A401A801E23FA180A23FB1812881B889A420ED11D23FB181B78012B0CD1FB681A891E23FB181B8813439AB27C
:403A0000FB681A8102E07B6870221A70BB69180007F0C8FC32E0FB681B89DB439AB21E23FB180A21791809880A401A801E23FB181B88002B0ED01D23FB181B78012B0CD1B9
:403A4000FB681A891E23FB181B8813439AB2FB681A8102E07B6870221A70BB69180007F0A1FC0BE0BB69180007F09CFC1E23FB1800221A807B686F221A70C0461E23FB18DA
:403A80001B881800BD4608B080BDC04680B584B000AF02003960BB1D1A800023FB601C4B1B78002B04D03B6810221A7000232BE007F074FC0300FB60164B1B68BB60BB683D
:403AC000002B19D0134B1B685A68124B1A60BB6805221A70BB68BA1D12881A81BB6800225A60BB680C4ADA60FB68180007F05AFC3B6800221A7006E0FB68180007F052FCC6
:403B00003B6872221A70BB681800BD4604B080BD68140020EC1F0020B032010080B588B000AFF8607A600B23FB180A1C1A7000233B61FB68002B04D17B686E221A70FB682A
:403B40008FE04A4B1B78002B04D07B680F221A70FB6886E0FB681B78052B04D07B6801221A70FB687DE007F019FC03003B61FB685B68002B04D01F23FB1801221A7003E049
:403B80001F23FB1800221A700B23FB181B78002B02D0012B29D059E01F23FB181B78002B19D1FB68324ADA60FB6800221A70314B1A68FB685A60FB6800221A812D4BFA689B
:403BC0001A603B69180007F0EDFB7B6800221A7000237B6144E03B69180007F0E3FB7B6849221A70FB687B613AE0FB685B68BB6108E0BB6902220021180000F021FDBB695F
:403C00001B68BB61BB69002BF3D1FB68184ADA60FB6800221A70174B1A68FB685A60FB6800221A81134BFA681A603B69180007F0B9FB1F23FB181B78012B01D1FFF7BAFB71
:403C40007B6800221A7000237B6109E03B69180007F0A8FB7B6807221A70FB687B61C0467B691800BD4608B080BDC04668140020B0320100EC1F002090B587B000AFF86075
:403C8000B9607A6000237B61FB68002B04D17B686E221A70002338E0BB68002B04D17B680C221A70002330E01A4B1B78002B04D07B6811221A70002327E007F06FFB030061
:403CC0007B61FB681B78052B08D07B69180007F069FB7B6801221A70002316E0FB68DA68BB681A60BB681B681322BC181800FFF7CBFB030023707B69180007F053FB7B686B
:403D000000221A701323FB181B781800BD4607B090BDC0466814002080B586B000AFF860B9607A6000237B61FB68002B03D17B686E221A7029E0BB68002B03D17B680C223B
:403D40001A7022E0124B1B78002B03D07B6812221A701AE007F022FB03007B61FB681B78052B07D07B69180007F01CFB7B6801221A700AE0FB68BA68DA607B69180007F008
:403D800011FB7B6800221A70C046BD4606B080BD6814002090B591B002AFF860080011007B600A23FB18021C1A800923FB180A1C1A7000233B63FB68002B04D1BB6C6E228B
:403DC0001A700023E7E1CE4B1B78002B04D0BB6C02221A700023DEE1CA4B1B78002B04D0BB6C0D221A700023D5E1FB681B78052B04D0BB6C01221A700023CCE12F23FB1889
:403E00000922BA1812787F218A431A702F23FB181B78002B0CD00923FB180922BA1812787F210A401A703723FB1801221A7003E03723FB1800221A7007F0B0FA03003B6373
:403E40000923FB181B78012B00D1D5E003DC002B00D18CE012E1022B02D0032B45D00DE1FB681A892C23FB180A21791809880A401A802C23FA180A23FB1812881B889A4201
:403E800020D13723FB181B78012B0AD1FB681B892C22BA181288D24392B213409AB2FB681A81994B1B682C22BA1812889A853B6B180007F077FABB6C00221A702C23FB18B8
:403EC0001B8868E10923FB181C780A23FB181A881423F918F8687B680093230000F0E0FA3B6B180007F05EFAD7E0FB681A892C23FB180A21791809880A401A802C23FB1857
:403F00001B88002B20D03723FB181B78012B0AD1FB681B892C22BA181288D24392B213409AB2FB681A81784B1B682C22BA1812889A853B6B180007F035FABB6C00221A702F
:403F40002C23FB181B8826E10923FB181C780A23FB181A881423F918F8687B680093230000F09EFA3B6B180007F01CFA95E0FB681B89DB439AB22C23FB180A217918098857
:403F80000A401A802C23FA180A23FB1812881B889A421ED13723FB181B78012B08D1FB681A892C23FB181B8813439AB2FB681A81554B1B682C22BA1812889A853B6B18000A
:403FC00007F0F0F9BB6C00221A702C23FB181B88E1E00923FB181C780A23FB181A881423F918F8687B680093230000F059FA3B6B180007F0D7F950E0FB681B89DB439AB2E9
:404000002C23FB180A21791809880A401A802C23FB181B88002B1ED03723FB181B78012B08D1FB681A892C23FB181B8813439AB2FB681A81344B1B682C22BA1812889A8544
:404040003B6B180007F0AEF9BB6C00221A702C23FB181B889FE00923FB181C780A23FB181A881423F918F8687B680093230000F017FA3B6B180007F095F90EE03B6B1800A7
:4040800007F090F92C23FB1800221A80BB6C6F221A702C23FB181B887DE0FFF78BF907F07DF903003B63184B1B6835229B5C002B34D0154B1A682B23FB183521525C1A7002
:4040C000114B1B683522002199541423FB18180000F012FB0C4B1B683422002199543B6B180007F05FF92C23FB1800221A802B23FB181B78022B09D1BB6C0E221A7009E0EF
:4041000068140020700C00206C140020BB6C0A221A70C0462C23FB181B883CE0204B1A682C23FB18928D1A803723FB181B78012B27D10923FB181B78002B19DB012B0DDD70
:40414000032B15DCFB681B892C22BA181288D24392B213409AB2FB681A8112E0FB681A892C23FB181B8813439AB2FB681A8108E03B6B180007F016F9BB6C6F221A700023BB
:4041800009E03B6B180007F00DF9BB6C00221A702C23FB181B881800BD460FB090BDC0466C14002080B582B000AF00237B6007F0F5F803007B60074B1A68BB1C928D1A807C
:4041C0007B68180007F0EEF8BB1C1B881800BD4602B080BD6C14002090B58BB000AFF860080011007B600A23FB18021C1A800923FB180A1C1A700023FB61FB68002B04D17F
:404200007B686E221A70002315E1FB681B78052B04D07B6801221A7000230CE107F0BEF80300FB610923FB181B78002B02D0012B0CD015E0FB681B890A22BA181288D24342
:4042400092B213409AB2FB681A8112E0FB681A890A23FB181B8813439AB2FB681A8108E0FB69180007F09EF87B6871221A700023E1E02323FB1800221A70FB685B687B6205
:40428000B7E07B6A9B7C012B00D17AE002DC002B50D09BE0022B02D0032B27D096E0FB681A897B6A198A1A23FB180A401A807B6A1B8A1A22BA1812889A4200D08FE019238B
:4042C000FC181A23FB1819887B6A0022180000F0B7F9030023701923FB181B78012B00D07DE02323FB1801221A7078E0FB681A897B6A198A1A23FB180A401A801A23FB18B9
:404300001B88002B00D16CE01923FC181A23FB1819887B6A0022180000F092F9030023701923FB181B78012B5BD12323FB1801221A7056E0FB681B89DB439AB27B6A198AB2
:404340001A23FB180A401A807B6A1B8A1A22BA1812889A4247D11923FC181A23FB1819887B6A0022180000F06BF9030023701923FB181B78012B36D12323FB1801221A707E
:4043800031E0FB681B89DB439AB27B6A198A1A23FB180A401A801A23FB181B88002B24D01923FC181A23FB1819887B6A0022180000F046F9030023701923FB181B78012B7A
:4043C00013D12323FB1801221A700EE0FB69180006F0E8FF7B686F221A7000232BE0C04604E0C04602E0C04600E0C0467B6A1B687B627B6A002B00D043E7FB69180006F0E1
:40440000D1FF2323FB181B78012B01D1FEF7D2FF06F0C4FF0300FB611623FB18FA6812891A80FB69180006F0BDFF7B6800221A701623FB181B881800BD460BB090BDC0462C
:4044400080B584B000AF786039600023FB607B68002B04D13B686E221A7000231BE07B681B78052B04D03B6801221A70002312E006F094FF0300FB600A23FB187A681289F4
:404480001A80FB68180006F08DFF3B6800221A700A23FB181B881800BD4604B080BDC04680B586B000AFF860B9601900BB1D1A807B1D0A1C1A70354B1A68344B1B6834216A
:4044C0005B5C20210B43D9B23423D1542F4B1B683522002199542D4B1B683A6A1A632B4B1B68BA689A62BB68BA1D12881A82BB687A1D12789A74254B1A68BB689A60FB68E6
:404500005A68BB681A60BB6800225A60BB68FA68DA60FB685B687B617B69002B02D07B69BA685A60FB68BA685A60184B1A681323FB183821525C1A701323FB181A781323AC
:40454000FB181B781249C95C104B1B6839201B5CDB43DBB20B40D9B20D4B99541323FB181B780B4AD35C002B0BD1084B1B683A229B5CDB43DBB2074A12781340DAB2054B5C
:404580001A70C046BD4606B080BDC0466C1400205C1200205812002080B584B000AF254B50211800FEF7CEFE0E23FB1800221A8024E00C23FB180E22BA18128801321A8036
:4045C0000E23FB181B881A011A4BD318BB600C23FB181B881A01174BD3187B60BB6800221A70BB687A685A60BB68134ADA600E23FB181A880E23FB1801321A800E23FB18A3
:404600001B88032BD5D90E23FB181B881A01094BD318BB60BB6800221A70BB6800225A60BB68054ADA60054B024A1A60C046BD4604B080BD840C0020B0320100EC1F002057
:4046400080B584B000AF786008001100BB1C021C1A807B1C0A1C1A707B689B68BB60BB6800221A63BB68BA1C12889A85BB6834229B5C20229343D9B2BB6834229954BB684A
:404680007A1C352112785A54BB6834229B5C002B1ED1BB683A229A5C154B1B781343DAB2134B1A70BB6838229B5C1800BB6838229B5C1A000F4B9A5CBB6839215B5C134326
:4046C000DAB20C4B1A540F23FB1801221A7003E00F23FB1800221A707B68180000F00CF80F23FB181B781800BD4604B080BDC046581200205C12002080B586B000AF7860C0
:404700007B685B687B617B681B683B617B69002B0CD17B68DB68FB60FB683A695A603B69002B0CD03B6900225A6008E07B693A691A603B69002B02D03B697A695A607B68EF
:404740009B68BB60BB6800229A62C046BD4606B080BDC04680B584B000AF78600023FB607B68002B01D1002314E07B681B78012B01D000230EE006F011FE0300FB607B68A9
:404780005B68BB607B6800225A60FB68180006F009FEBB681800BD4604B080BD80B584B000AF78600023FB60184B1B78002B01D0002327E006F0F2FD0300FB60144B1B6806
:4047C000BB60134B1B68002B04D0114B1B685A680F4B1A60FB68180006F0E4FDBB68002B0FD0BB6801221A70BB6800221A81BB687A685A60BB68074A5A61BB681800FEF7FC
:40480000FBFBBB681800BD4604B080BD6814002064140020B432010080B588B000AFF8607A600B23FB180A1C1A7000237B61FB68002B04D17B6804221A70FB6889E0FB68D5
:404840001B78012B04D07B6801221A70FB6880E0424B1B78002B04D07B680F221A70FB6877E006F09BFD03007B61FB689B7A002B04D01F23FB1801221A7003E01F23FB18BD
:4048800000221A700B23FB181B78002B02D0012B2FD053E01F23FB181B78002B19D1FB682F4A5A61FB6800221A702E4B1A68FB685A60FB6800221A812A4BFA681A607B690D
:4048C000180006F06FFD7B6800221A700023BB613EE07B69180006F065FD7B6849221A70FB68BB6134E0F868022302220021FEF79BF9FB689B7A002BF5D1FB68184A5A6157
:40490000FB6800221A70174B1A68FB685A60FB6800221A81134BFA681A607B69180006F041FD1F23FB181B78012B01D1FEF742FD7B6800221A700023BB6109E07B69180010
:4049400006F030FD7B6807221A70FB68BB61C046BB691800BD4608B080BDC04668140020B43201006414002080B586B000AFF860B9607A6000233B61FB68002B04D17B683A
:4049800004221A70002391E0FB681B78012B04D07B6801221A70002388E0464B1B78002B04D07B6802221A7000237FE0424B1B78002B04D07B680D221A70002376E006F042
:4049C000EDFC03003B61FB685B687B617B69002B0BD0FB6800225A603B69180006F0E2FC7B6800221A707B6960E0344B1A68334B1B6834215B5C02210B43D9B23423D1543B
:404A00002E4B1B683522002199542C4B1B68BA681A63FB681800FEF793F93B69180006F0C1FCFEF7C7FC06F0B9FC03003B61234B1B6835229B5C002B02D0022B08D00DE0E1
:404A40001E4B1B685B6A7B617B6800221A7012E000237B617B680E221A700CE0174B1B68FA6811001800FEF73BFA00237B617B680A221A70C046114B1B6834220021995425
:404A80000E4B1B683522002199540C4B1B680022DA610A4B1B6800221A62084B1B6800225A623B69180006F07DFC7B691800BD4606B080BD68140020700C00206C1400205F
:404AC00080B586B000AFF8607A600B23FB180A1C1A7000233B61FB68002B04D17B6804221A7000234FE0FB681B78012B04D07B6801221A70002346E006F050FC03003B61C2
:404B0000FB689B7A002B36D01723FB1800221A700B23FB181B78012B12D10CE0F868022302220021FEF780F81723FB181A781723FB1801321A70FB689B7A002BEED10DE095
:404B4000F868022302220021FEF76EF81723FB181A781723FB1801321A70C0463B69180006F020FCFEF726FC7B680E221A701723FB181B7807E03B69180006F013FC7B6834
:404B800000221A7000231800BD4606B080BDC04680B584B000AF786039600023FB607B68002B01D1042332E03B68002B01D103232DE07B681B78012B01D0012327E006F08B
:404BC000EDFB0300FB607B689B7A002B0DD03968786800230222FEF727F8FB68180006F0E1FBFEF7E7FB002311E07B685B68002B05D0FB68180006F0D5FB142307E07B6873
:404C00003A685A60FB68180006F0CCFB00231800BD4604B080BDC04680B586B000AFF860B960FB1D1A7000237B61FB68002B01D1042348E0BB68002B01D1032343E0FB6804
:404C40001B78012B01D001233DE006F0A7FB03007B61FB689B7A002B23D0FB1D1B78012213400BD005E0B968F86800230222FDF7DBFFFB689B7A002BF5D105E0B968F86810
:404C800000230222FDF7D0FF7B69180006F08AFBFB1D1B780422134001D1FEF78BFB002311E0FB685B68002B05D07B69180006F079FB142307E0FB68BA685A607B69180009
:404CC00006F070FB00231800BD4606B080BDC04680B586B000AF786039600023BB607B68002B01D104233AE03B68002B01D1092335E07B681B78012B01D001232FE006F0B5
:404D00004DFB0300BB607B689A7A3B681A737B680B333B613B680433FB601723FB1800221A700EE0FB685A1CFA603A69511C396112781A701723FB181A781723FB180132BD
:404D40001A701723FB181B78072BEBD97B685A683B681A60BB68180006F024FB00231800BD4606B080BDC04680B58AB000AFF860B9607A603B600023BB61FB68002B04D1E4
:404D80003B6862221A70002364E0FB680322134004D03B6862221A7000235BE0BB68012B04D83B685B221A70002353E07B68032B04D83B685C221A7000234BE006F0EEFA2E
:404DC0000300BB61254B1B687B61244B1B68002B04D0224B1B685A68204B1A60BB69180006F0E0FA7B69002B04D13B685A221A7000232FE0FB683B62FB687B62BB68013BD3
:404E00003B610023FB610BE07A6A7B68D3187B623B6A7A6A1A607B6A3B62FB690133FB61FA693B699A42EFD33B6A00221A607B69FA681A607B69FA685A607B69BA681A613D
:404E40007B69BA68DA607B697A689A603B6800221A707B691800BD460AB080BDEC11002080B584B000AF786039600023FB607B68002B04D13B6860221A70002324E006F01A
:404E80008DFA0300FB607B681B69002B14D07B685B68BB60BB681A687B685A607B681B695A1E7B681A61FB68180006F07BFA3B6800221A70BB6807E0FB68180006F072FA3B
:404EC0003B685D221A7000231800BD4604B080BD90B587B000AFF860B9607A6000237B61FB68002B04D17B6860221A7000232BE0BB68002B04D17B680C221A70002323E0FE
:404F0000134B1B78002B04D07B6811221A7000231AE006F043FA03007B61FB685A69BB681A60BB681B681322BC181800FEF7ACFA030023707B69180006F034FA7B680022D2
:404F40001A701323FB181B781800BD4607B090BD6814002080B586B000AFF860B9607A6000237B61FB68002B03D17B6860221A701CE0BB68002B03D17B680C221A7015E0AD
:404F80000C4B1B78002B03D07B6812221A700DE006F004FA03007B61FB68BA685A617B69180006F0FFF97B6800221A70BD4606B080BDC0466814002080B584B000AF786067
:404FC00039600023FB607B68002B01D1602325E03B68002B01D15F2320E006F0DFF90300FB607B681A697B68DB689A4205D3FB68180006F0D7F95E2310E07B685A683B68AA
:405000001A607B683A685A607B681B695A1C7B681A61FB68180006F0C5F900231800BD4604B080BD80B584B000AF786039600023FB607B68002B01D1602328E03B68002BDE
:4050400001D1612323E006F0A9F90300FB607B681A683B681A607B685A683B685A607B689A683B689A607B68DA683B68DA607B681A693B681A61FB68180006F093F93B68B5
:40508000DA683B681B69D21A3B685A6100231800BD4604B080BDC04680B582B000AF1F4B78211800FEF74EF9BB1D00221A801BE0BB1D1A8813005B009B18DB00174A9B1882
:4050C0003B60BB1D1B885A1C13005B009B18DB00124A9A183B685A603B68114A5A61BB1D1A88BB1D01321A80BB1D1B88032BDFD9BB1D1A8813005B009B18DB00074A9B180A
:405100003B603B6800225A603B68054A5A61054B024A1A60C046BD4602B080BD5C0F0020B8320100EC11002080B584B000AF786039600023FB607B68002B04D13B68042254
:405140001A70002360E07B681B78042B04D03B6801221A70002357E02D4B1B78002B04D03B6802221A7000234EE006F017F90300FB607B681B891B0A9AB20B23FB181A704C
:405180007B681B891A00FF231340FF2B34D17B681B89FF2293439AB27B681A817B681A891C4B1B6836215B5C9BB213439AB27B681A81184B1A687B685A600B23FB181B7821
:4051C000FF2B10D0134B1B6836229B5C0B22BA1812789A4207D3FB68180006F0E3F83B6878221A7006E0FB68180006F0DBF83B6800221A70012307E0FB68180006F0D2F864
:405200003B6800221A7000231800BD4604B080BD681400206C14002080B584B000AF02003960FB1D1A700023FB60FB1D1B78FF2B08D0FB1D1B783E2B04D93B682A221A70CA
:40524000002363E0334B1B78002B04D03B6810221A7000235AE006F0A1F80300FB60FB1D1B78FF2B15D0FB1D1A782B4B9200D358002B08D0FB68180006F094F83B6828228B
:405280001A70002342E0FB1D1A78234B92000121D150224B1B68BB60BB68002B12D1FB1D1B78FF2B05D0FB1D1A781B4B92000021D150FB68180006F075F83B6804221A7037
:4052C000BB6823E0154B1B685A68144B1A60FB68180006F067F8BB6804221A70FB1D1B789BB21B029BB2FF2213439AB2BB681A81BB6800225A60BB68094A5A61BB68180019
:40530000FDF77AFE3B6800221A70BB681800BD4604B080BD68140020F41F002064140020BC32010080B58AB000AFF8607A600B23FB180A1C1A700023FB61FB68002B04D10A
:405340007B6804221A70FB68D7E0FB681B78042B04D07B6801221A70FB68CEE0694B1B78002B04D07B680F221A70FB68C5E006F015F80300FB61FB689B7A002B04D02723D7
:40538000FB1801221A7003E02723FB1800221A700B23FB181B78002B02D0012B3CD0A1E02723FB181B78002B2CD1FB68564A5A61FB681B891B0A9AB21B23FB181A701B2350
:4053C000FB181B78FF2B06D01B23FB181A784F4B92000021D150FB6800221A704C4B1A68FB685A60FB6800221A81494BFA681A60FB69180005F0D6FF7B6800221A700023E9
:405400003B6279E0FB69180005F0CCFF7B6849221A70FB683B626FE0FB681B891B0A9AB21B23FB181A701B23FB181B78FF2B21D0FB681A891A23FB181A70FB685B687B61DF
:405440007B69002B16D07B6936229B5C1B22BA1812789A420ED11A23FB181A787B691100180000F03FFB05E0F868022310220021FDF7DAFBFB689B7A002BF5D1FB68224AD9
:405480005A61FB681B891B0A9AB21B23FB181A701B23FB181B78FF2B06D01B23FB181A781A4B92000021D150FB6800221A70184B1A68FB685A60FB6800221A81144BFA68EC
:4054C0001A60FB69180005F06DFF2723FB181B78012B01D1FDF76EFF7B6800221A7000233B6209E0FB69180005F05CFF7B6807221A70FB683B62C0463B6A1800BD460AB0EC
:4055000080BDC04668140020BC320100F41F00206414002080B58AB000AFF860B9607A6000233B62FB68002B03D17B6804221A70B5E1FB681B78042B03D07B6801221A7096
:40554000ADE1D84B1B78002B03D07B6802221A70A5E1D54B1B78002B03D07B680D221A709DE105F01BFF03003B62FB681B891B0A9AB21F23FB181A70FB681B89DBB2FF2B43
:4055800033D1FB681B89FF2293439AB2FB681A81FB681A89C54B1B6836215B5C9BB213439AB2FB681A81C14B1A68FB685A601F23FB181B78FF2B10D0BC4B1B6836229B5C95
:4055C0001F22BA1812789A4207D33B6A180005F0E9FE7B6878221A7061E13B6A180005F0E1FE7B6800221A7059E11F23FB181B78FF2B00D1FFE0FB681A891E23FB181A7076
:40560000FB685B68BB61BB6936229B5C1F22BA1812789A4200D3EEE0A44B1B6836229B5C1E22BA1812789A4200D8E4E01723FB18BA693821525C1A701723FB181B789C4AFF
:40564000D35CBA693921525C1340DBB2002B27D01723FB181B781722BA18127894498A5CB9693920095CC943C9B20A40D1B2904AD1541723FB181B788D4AD35C002B0AD177
:40568000BB693A229B5CDB43DBB28A4A12781340DAB2884B1A702723FB1801221A7036E0BB69DB693B613B69002B2CD01723FB18BA693821525C1A701723FB181B78172225
:4056C000BA18127839698A18D27AB9693920095CC943C9B20A40D1B23A69D3180A1CDA721723FB181B783A69D318DB7A002B0AD13B699B7ABA693A21525CD243D2B21340F0
:40570000DAB23B699A722723FB1800221A70BB691F22BA18362112785A54BB6936229B5CDB08D9B2BB6938229954BB6936229B5C07221340D9B2BB6937229954BB693822B0
:405740009B5C1A0001239340D9B2BB693A229954BB6937229B5C1A0001239340D9B2BB69392299542723FB181B78012B1AD1BB693A229A5C4F4B1B781343DAB24D4B1A70FF
:40578000BB6938229B5C1800BB6938229B5C1A00474B9A5CBB6939215B5C1343DAB2444B1A5421E0BB69DB693B613B69002B1BD03B699A7ABB693A215B5C1343DAB23B69FE
:4057C0009A72BB6938229B5C1800BB6938229B5C1A003B699B18DA7ABB6939215B5C1343DAB23B691B18DA721F23FB181A78324B9200B969D1502D4B1A682C4B1B6834211A
:405800005B5C10210B43D9B23423D154274B1B68352200219954254B1B68BA681A63FB681800FDF78DFA3B6A180005F0BBFDFDF7C1FD05F0B3FD03003B621C4B1B683522A7
:405840009B5C002B02D0022B04D007E07B6800221A700EE07B680E221A700AE0134B1B68FA6811001800FDF73BFB7B680A221A70C0460E4B1B683422002199540B4B1B68FA
:40588000352200219954094B1B680022DA61074B1B6800221A623B6A180005F083FDBD460AB080BD68140020700C00206C1400205C12002058120020F41F002090B585B013
:4058C00000AF78600023FB60504B1B78002B01D0052397E07B68002B01D1042392E07B681B78042B01D001238CE005F057FD0300FB607B681B891B0A9AB20B23FB181A70F1
:405900007B681A890A23FB181A707B685A68404B1B689A4205D0FB68180005F043FD642370E00B23FB181B78FF2B18D0384B1B6836229B5C0B22BA1812789A4208D1344B34
:405940001A680A23FB181B781900100000F0CAF80B23FB181A782F4B92000121D1507B689B7A002B3FD00A23FC187868002310220021FDF759F9030023707B681B89FF2288
:4059800093439AB27B681A817B681A890A23FB181B789BB213439AB27B681A810A23FB181A781C4B9200D2587B685A600B23FB181B78FF2B0FD00A23FA180B23FB18127808
:4059C0001B789A4207D8FB68180005F0EBFCFDF7F1FC782316E0FB68180005F0E3FCFDF7E9FC00230EE07B681B89FF2213439AB27B681A817B6800225A60FB68180005F060
:405A0000D1FC00231800BD4605B090BD681400206C140020F41F002080B586B000AF786039600023BB602E4B1B78002B01D0062351E07B68002B01D104234CE03B68002BBE
:405A400001D1092347E07B681B78042B01D0012341E005F0A3FC0300BB607B681B891B0A9BB2DAB23B68DA727B681B89DAB23B689A723B689B7AFF2B03D13B6801225A7216
:405A800002E03B6800225A727B689A7A3B681A727B680B333B613B68FB601723FB1800221A700EE0FB685A1CFA603A69511C396112781A701723FB181A781723FB1801325B
:405AC0001A701723FB181B78072BEBD9BB68180005F068FC00231800BD4606B080BDC0466814002080B584B000AF78600A00FB1C1A700F23FB187A683821525C1A700F235A
:405B0000FB181B780F22BA18127838498A5C79683920095CC943C9B20A40D1B2334AD1540F23FB181B78314AD35C002B0AD17B683A229B5CDB43DBB22D4A12781340DAB2ED
:405B40002B4B1A707B68FA1C362112785A54294BFA1C12781A70FB1C1B78DB08DBB207221340D9B27B6838229954FB1C1B7807221340D9B27B68372299547B6838229B5CA6
:405B80001A0001239340D9B27B683A2299547B6837229B5C1A0001239340D9B27B68392299547B683A229A5C114B1B781343DAB20F4B1A707B6838229B5C18007B683822B0
:405BC0009B5C1A00094B9A5C7B6839215B5C1343DAB2064B1A54FB1C1A78074B92007968D150C046BD4604B080BDC0465C12002058120020540F0020F41F002080B586B0ED
:405C000000AF7860396000233B617B68002B04D13B6804221A70002338E07B681B78022B04D03B6801221A7000232FE005F0B6FB03003B617B685B68FB60FB68DB8A002BE2
:405C40001AD0FB681B69191DFA6811611B687B61FB68DB8A013B9AB2FB68DA82FB681A69FB689B689A4203D1FB685A68FB681A613B6800221A7004E03B681F221A70002318
:405C80007B613B69180005F08DFB7B691800BD4606B080BD80B586B000AF78600A00BB1C1A8000233B61354B1B78002B01D000235FE005F073FB03003B61314B1B687B6163
:405CC0002F4B1B68002B04D02D4B1B685A682C4B1A603B69180005F065FB7B69002B47D005F05CFB03003B61264B1B68FB60FB68002B30D0234B1B681A68224B1A603B69FD
:405D0000180005F04FFBFB687A685A60BB1C1B889B007A68D218FB689A60FB687A68DA60FB687A681A61FB68BA1C12889A82FB680022DA827B6902221A707B6900221A818D
:405D40007B69FA685A607B690F4A5A617B691800FDF752F90CE00A4B1A687B695A60084B7A691A603B69180005F01CFB00237B617B691800BD4606B080BDC0466814002084
:405D80006414002054120020C032010080B588B000AFF8607A600B23FB180A1C1A7000237B61FB68002B04D17B6804221A70FB689DE0FB681B78022B04D07B6801221A7037
:405DC000FB6894E04C4B1B78002B04D07B680F221A70FB688BE005F0E1FA03007B61FB689B7A002B04D01F23FB1801221A7003E01F23FB1800221A700B23FB181B78002B2C
:405E000002D0012B39D067E01F23FB181B78002B23D1FB68394A5A61FB685B683B61384B1A683B691A60364B3A691A60FB6800221A70344B1A68FB685A60FB6800221A819C
:405E4000304BFA681A607B69180005F0ABFA7B6800221A700023BB6148E07B69180005F0A1FA7B6849221A70FB68BB613EE0F868022304220021FCF7D7FEFB689B7A002B07
:405E8000F5D1FB681D4A5A61FB685B683B611C4B1A683B691A601A4B3A691A60FB6800221A70184B1A68FB685A60FB6800221A81144BFA681A607B69180005F073FA1F2340
:405EC000FB181B78012B01D1FDF774FA7B6800221A700023BB6109E07B69180005F062FA7B6807221A70FB68BB61C046BB691800BD4608B080BDC04668140020C0320100B4
:405F0000541200206414002080B584B000AF78600023FB607B68002B01D104231CE07B681B78022B01D0012316E005F037FA0300FB607B685B68BB60BB685A68BB68DA60BD
:405F4000BB685A68BB681A61BB680022DA82FB68180005F027FA00231800BD4604B080BD80B588B000AFF860B9607A600023BB61FB68002B04D17B6804221A700023A6E0F8
:405F8000FB681B78022B04D07B6801221A7000239DE0514B1B78002B04D07B6802221A70002394E04D4B1B78002B04D07B680D221A7000238BE005F0F1F90300BB61FB68AF
:405FC0005B687B617B69DB8A002B1FD07B691B69191D7A6911611B68FB617B69DB8A013B9AB27B69DA827B691A697B699B689A4203D17B695A687B691A61BB69180005F088
:40600000D1F97B6800221A70FB6960E0344B1A68334B1B6834215B5C04210B43D9B23423D1542F4B1B683522002199542C4B1B68BA681A63FB681800FCF782FEBB691800B6
:4060400005F0B0F9FDF7B6F905F0A8F90300BB61234B1B6835229B5C002B02D0022B08D00DE01F4B1B685B6AFB617B6800221A7012E00023FB617B680E221A700CE0184B02
:406080001B68FA6811001800FCF72AFF0023FB617B680A221A70C046114B1B683422002199540F4B1B683522002199540C4B1B680022DA610A4B1B6800221A62084B1B6890
:4060C00000225A62BB69180005F06CF9FB691800BD4608B080BDC04668140020700C00206C14002080B586B000AFF8607A600B23FB180A1C1A7000233B61FB68002B04D17B
:406100007B6804221A7000234FE0FB681B78022B04D07B6801221A70002346E005F03EF903003B61FB689B7A002B36D01723FB1800221A700B23FB181B78012B12D10CE06E
:40614000F868022304220021FCF76EFD1723FB181A781723FB1801321A70FB689B7A002BEED10DE0F868022304220021FCF75CFD1723FB181A781723FB1801321A70C046B6
:406180003B69180005F00EF9FDF714F97B680E221A701723FB181B7807E03B69180005F001F97B6800221A7000231800BD4606B080BDC04680B584B000AF786039600023A5
:4061C000FB607B68002B01D1042346E07B681B78022B01D0012340E005F0E0F80300FB607B689B7A002B0DD03968786800230422FCF71AFDFB68180005F0D4F8FDF7DAF85E
:4062000000232AE07B685B68BB60BB68DA8ABB689B8A9A4205D3FB68180005F0C3F81E231BE0BB68DB68191DBA68D1603A681A60BB68DB8A01339AB2BB68DA82BB68DA688F
:40624000BB689B689A4203D1BB685A68BB68DA60FB68180005F0A6F800231800BD4604B080BDC04680B584B000AF786039600023FB607B68002B01D1042348E07B681B7817
:40628000022B01D0012342E005F088F80300FB607B689B7A002B0DD03968786800230422FCF7C2FCFB68180005F07CF8FDF782F800232CE07B685B68BB60BB68DA8ABB6860
:4062C0009B8A9A4205D3FB68180005F06BF81E231DE0BB681A69BB685B689A4203D1BB689A68BB681A61BB681B691A1FBB681A61BB681B693A681A60BB68DB8A01339AB26C
:40630000BB68DA82FB68180005F04CF800231800BD4604B080BDC04680B586B000AFF860B960FB1D1A7000237B61FB68002B01D1042375E0FB681B78022B01D001236FE086
:4063400005F02CF803007B61FB689B7A002B23D0FB1D1B78012213400BD005E0B968F86800230422FCF760FCFB689B7A002BF5D105E0B968F86800230422FCF755FC7B6955
:40638000180005F00FF8FB1D1B780422134001D1FDF710F8002343E0FB685B683B613B69DA8A3B699B8A9A4205D37B69180004F0F9FF1E2334E0FB1D1B780222134013D008
:4063C0003B691A693B695B689A4203D13B699A683B691A613B691B691A1F3B691A613B691B69BA681A6010E03B69DB68191D3A69D160BA681A603B69DA683B699B689A4270
:4064000003D13B695A683B69DA603B69DB8A01339AB23B69DA827B69180004F0C3FF00231800BD4606B080BD80B588B000AF7860396000233B617B68002B01D104234EE057
:406440003B68002B01D1092349E07B681B78022B01D0012343E004F0A1FF03003B617B689A7A3B681A747B680B33BB613B6808337B611F23FB1800221A700EE07B695A1CD1
:406480007A61BA69511CB96112781A701F23FB181A781F23FB1801321A701F23FB181B78072BEBD97B685B68FB60FB68DB8A002B05D0FB681B691A683B681A6002E03B6898
:4064C00000221A60FB68DA8A3B689A80FB689A8A3B68DA803B69180004F064FF00231800BD4608B080BDC04680B584B000AF244B60211800FCF726FF0E23FB1800221A8074
:4065000024E00C23FB180E22BA18128801321A800E23FB181A8813005B009B18DB00184A9B18BB600C23FB181A8813005B009B18DB00134A9B187B60BB687A681A600E231F
:40654000FB181A880E23FB1801321A800E23FB181B88022BD5D90E23FB181A8813005B009B18DB00064A9B18BB60BB6800221A60044B034A1A60C046BD4604B080BDC046BE
:40658000F01100205412002080B584B000AF78600023FB607B68002B01D1002320E07B681B78032B01D000231AE004F0F7FE0300FB600A23FB187A6812891A800A23FB1853
:4065C0001B88002B05D07B681B89013B9AB27B681A81FB68180004F0E5FE0A23FB181B881800BD4604B080BD80B584B000AF0200BB1D1A800023FB60194B1B78002B01D02D
:40660000002328E004F0CAFE0300FB60154B1B68BB60144B1B68002B04D0124B1B685A68104B1A60FB68180004F0BCFEBB68002B10D0BB6803221A70BB68BA1D12881A8167
:40664000BB6800225A60BB68074A5A61BB681800FCF7D2FCBB681800BD4604B080BDC0466814002064140020C432010080B588B000AFF8607A600B23FB180A1C1A7000232E
:406680007B61FB68002B04D17B6804221A70FB6889E0FB681B78032B04D07B6801221A70FB6880E0424B1B78002B04D07B680F221A70FB6877E004F071FE03007B61FB68D5
:4066C0009B7A002B04D01F23FB1801221A7003E01F23FB1800221A700B23FB181B78002B02D0012B2FD053E01F23FB181B78002B19D1FB682F4A5A61FB6800221A702E4B55
:406700001A68FB685A60FB6800221A812A4BFA681A607B69180004F045FE7B6800221A700023BB613EE07B69180004F03BFE7B6849221A70FB68BB6134E0F86802230122EE
:406740000021FCF771FAFB689B7A002BF5D1FB68184A5A61FB6800221A70174B1A68FB685A60FB6800221A81134BFA681A607B69180004F017FE1F23FB181B78012B01D15C
:40678000FCF718FE7B6800221A700023BB6109E07B69180004F006FE7B6807221A70FB68BB61C046BB691800BD4608B080BDC04668140020C43201006414002080B586B03A
:4067C00000AFF860B9607A6000237B61FB68002B03D17B6804221A7081E0FB681B78032B03D07B6801221A7079E03E4B1B78002B03D07B6802221A7071E03B4B1B78002B2A
:4068000003D07B680D221A7069E004F0C7FD03007B61FB681B89002B0DD0FB681B89013B9AB2FB681A817B69180004F0BBFD7B6800221A7053E02D4B1A682C4B1B683421BA
:406840005B5C01210B43D9B23423D154274B1B68352200219954254B1B68BA681A63FB681800FCF76DFA7B69180004F09BFDFCF7A1FD04F093FD03007B611C4B1B6835226C
:406880009B5C002B02D0022B04D007E07B6800221A700EE07B680E221A700AE0134B1B68FA6811001800FCF71BFB7B680A221A70C0460E4B1B683422002199540B4B1B68CB
:4068C000352200219954094B1B680022DA61074B1B6800221A627B69180004F063FDBD4606B080BD68140020700C00206C14002080B586B000AFF8607A600B23FB180A1CBB
:406900001A7000233B61FB68002B04D17B6804221A7000234FE0FB681B78032B04D07B6801221A70002346E004F038FD03003B61FB689B7A002B36D01723FB1800221A708B
:406940000B23FB181B78012B12D10CE0F868022301220021FCF768F91723FB181A781723FB1801321A70FB689B7A002BEED10DE0F868022301220021FCF756F91723FB189B
:406980001A781723FB1801321A70C0463B69180004F008FDFCF70EFD7B680E221A701723FB181B7807E03B69180004F0FBFC7B6800221A7000231800BD4606B080BDC046B1
:4069C00080B584B000AF78600023FB607B68002B01D1042331E07B681B78032B01D001232BE004F0DBFC0300FB607B689B7A002B0DD07868002301220021FCF715F9FB6899
:406A0000180004F0CFFCFCF7D5FC002315E07B681B890C4A93420BD07B681B8901339AB27B681A81FB68180004F0BCFC002304E0FB68180004F0B6FC33231800BD4604B01D
:406A400080BDC046FFFF000080B586B000AF786039600023BB607B68002B01D104233AE03B68002B01D1092335E07B681B78032B01D001232FE004F091FC0300BB607B68E0
:406A80009A7A3B689A727B680B333B613B680233FB601723FB1800221A700EE0FB685A1CFA603A69511C396112781A701723FB181A781723FB1801321A701723FB181B7882
:406AC000072BEBD97B681A893B681A80BB68180004F068FC00231800BD4606B080BDC04680B586B000AFF8607A600A23FB180A1C1A8000237B61FB68002B03D17B6804225D
:406B00001A7029E0FB681B78032B03D07B6801221A7021E004F042FC03007B617B6800221A70FB681B89002B05D0FB680A22BA1812881A810CE0FB689B7A002B05D1FB6835
:406B40000A22BA1812881A8102E07B6849221A707B69180004F026FCBD4606B080BDC04680B588B000AF0200FB1D1A70BB1D0A1C1A7000237B61FB1D1B783E2B05D9FB1DC9
:406B80001B78FF2B01D02A2380E1BB1D1B783E2B01D92A237AE104F001FC03007B61BB1D1A78BC4B9200D358002B05D07B69180004F0F8FB282369E1FB1D1B78FF2B05D122
:406BC000B54B1A68FB1D3621525C1A70FB1D1A78B04B9200D3583B613B69002B05D17B69180004F0DFFB292350E13B69012B05D17B69180004F0D6FB432347E10F23FB1848
:406C0000BA1D1278D2081A700E23FB18BA1D127807210A401A700F23FB181B7801229A400D23FB181A700E23FB181B7801229A400C23FB181A70FB1D1A78964B920000216E
:406C4000D150BB1D1A78934B92003969D1500B23FB183A693821525C1A700A23FB183A693A21525C1A700923FB183A693921525C1A700B23FB181B78884AD35C0922BA1825
:406C800012781340DBB2002B3AD00B23FB181B780B22BA18127881498A5C092179180978C943C9B20A40D1B27C4AD1540B23FB181B787A4AD35C002B0AD10A23FB181B780D
:406CC000DB43DBB2764A12781340DAB2744B1A70734B1A780D23FB181B781343DAB2704B1A700F23FB181B780F22BA1812786B49895C0C22BA1812780A43D1B2674AD154FC
:406D00003B69DB69FB61FB69002B41D00B23FB181B780B22BA181278F9698A18D27A092179180978C943C9B20A40D1B2FA69D3180A1CDA720B23FB181B78FA69D318DB7AFB
:406D4000002B0AD1FB699B7A0A22BA181278D243D2B21340DAB2FB699A72FB699A7A0D23FB181B781343DAB2FB699A720F23FB181B780F22BA181278F9698A18D17A0C22A2
:406D8000BA1812780A43D1B2FA69D3180A1CDA723B691B6A002B51D03B691B6ABB61BB691B68FB6147E00B23FB181B780B22BA181278F9698A18D27A092179180978C9430E
:406DC000C9B20A40D1B2FA69D3180A1CDA720B23FB181B78FA69D318DB7A002B0AD1FB699B7A0A22BA181278D243D2B21340DAB2FB699A72FB699A7A0D23FB181B78134381
:406E0000DAB2FB699A720F23FB181B780F22BA181278F9698A18D17A0C22BA1812780A43D1B2FA69D3180A1CDA72BB690433BB61BB691B68FB61FB69002BB4D13B69BA1D7F
:406E4000362112785A543B690F22BA18382112785A543B690E22BA18372112785A543B690D22BA183A2112785A543B690C22BA18392112785A547B69180004F093FA094BD6
:406E80001B78012B01D1FCF795FA00231800BD4608B080BDF41F00206C1400205C12002058120020790C002090B58DB004AFF860B9607A601A00FB1C1A700023FB61FB1C2B
:406EC0001B783F2B01D92A235AE004F067FA0300FB612D4B1B78002B05D0FB69180004F061FA3C234CE0FB1C1A78284B9200D358002B40D1FB1C1A78244B92000121D1501D
:406F0000FB69180004F04EFA7A68B968F8680023FBF7F4F80300BB611723FC18B969FB1C187800230293002301930023009300230022FCF789FB030023701723FB181B78A8
:406F4000002B06D1124B1B78012B10D1FCF732FA0DE004F023FA0300FB61FB1C1A780B4B92000021D150FB69180004F01BFA1723FB181B7804E0FB69180004F013FA2823B2
:406F80001800BD4609B090BD68140020F41F0020790C0020B0B58CB004AFF860B9607A601A00FB1C1A700023FB61FB1C1B783F2B01D92A2369E004F0F1F90300FB61354B22
:406FC0001B78002B05D0FB69180004F0EBF93C235BE0FB1C1A78304B9200D358002B4FD1FB1C1A782C4B92000121D150FB69180004F0D8F94023FB181A88B96B7B6B180074
:4070000000F068FD4023FB181B887A68B968F868FBF774F80300BB611723FC183023FB181D887A6BB969FB1C18784023FB181B880293FB6B0193BB6B00932B00FCF704FB7D
:40704000030023701723FB181B78002B06D1134B1B78012B10D1FCF7ADF90DE004F09EF90300FB61FB1C1A780B4B92000021D150FB69180004F096F91723FB181B7804E094
:40708000FB69180004F08EF928231800BD4608B0B0BDC04668140020F41F0020790C002080B586B000AF0200FB1D1A7000237B61754B1B78002B01D04023E0E0FB1D1B78FA
:4070C0003F2B01D13E23DAE0FB1D1B783E2B05D9FB1D1B78FF2B01D02A23D0E004F05EF903007B61FB1D1B78FF2B05D1674B1A68FB1D3621525C1A70FB1D1A78644B920009
:40710000D3583B613B69002B05D17B69180004F049F94323B3E03B69012B05D17B69180004F040F93D23AAE03B6938229B5C18003B6938229B5C1A00564B9B5C3A6939214E
:40714000525CD243D2B21340DAB2524B1A543B6938229B5C1A004F4B9B5C002B0AD13B693A229B5CDB43DBB24B4A12781340DAB2494B1A703B69DB69002B06D03B69DA69AA
:407180003B6911001800FBF7ABFE3B691B6A002B06D03B691A6A3B6911001800FBF7DAFE3B699B6AFB60FB68002B03D0FB681800FDF7A2FA3B6900221A633B6934220021B0
:4071C00099543B69352200219954344B1B78FF2B05D0324B1B780133DAB2304B1A707B69180004F0DFF8FBF719FD04F0D7F803007B612A4B1B78002B05D0284B1B78013BF8
:40720000DAB2264B1A703B691800FAF74FFF244B1B78013BDAB2224B1A70FB1D1A781C4B92000021D1503B699B69002B08D13B695B6900229A613B695A691A4B1A6009E0C6
